:100000000EC028C027C026C025C024C023C022C0DF
:1000100021C020C020C01EC01DC01CC01BC0112498
:100020001FBECFE5D2E0DEBFCDBF10E0A0E6B0E05E
:10003000EEE6F2E002C005900D92A236B107D9F7C4
:1000400010E0A2E6B0E001C01D92AA36B107E1F7C8
:100050006ED00BC1D5CF1F920F920FB60F92112405
:100060002F933F938F939F93AF93BF93F894809177
:100070006600909167008F5F914054F48091660014
:10008000909167000196909367008093660004C08A
:100090001092670010926600809162009091630058
:1000A000A0916400B09165000097A105B10581F1B0
:1000B0008091620090916300A0916400B09165000E
:1000C0000197A109B1098093620090936300A09306
:1000D0006400B093650020916800309169008091C0
:1000E0006600909167008217930794F480916000F6
:1000F000909161008230910539F08330910531F0A3
:10010000019749F4C09A07C0C19A05C0C39A03C0B9
:10011000C098C198C3987894BF91AF919F918F91E7
:100120003F912F910F900FBE0F901F901895EF9257
:10013000FF920F931F938FE087BB82E08ABD83BF3E
:100140008EE189BD80E189BF78941092620010929F
:100150006300109264001092650084ECE82E89E040
:10016000F82E012D112DC29A42E050E0509361000B
:100170004093600020E030E0E0926200F092630083
:100180000093640010936500309369002093680029
:100190008091620090916300A0916400B09165002D
:1001A0000097A105B105A1F72B5F3F4F2936310517
:1001B00019F724E630E0E0926200F09263000093C9
:1001C000640010936500309369002093680080916B
:1001D000620090916300A0916400B0916500009767
:1001E000A105B105A1F7255030408FEF2B3F38070F
:1001F00011F74F5F5F4F4530510509F0B7CFC298F7
:1002000040E050E014C000008F5F8A30E1F79F5F4C
:100210009A3011F080E0F7CF2150304011F090E09B
:10022000F9CF4F5F5F4F4830510509F49CCF20E371
:1002300035E7F5CF8FE087BB82E08ABD83BF8EE1D3
:1002400089BD80E189BF789408950AC000002F5FBE
:100250002A30E1F73F5F3A3011F020E0F7CF019705
:0E026000009711F030E0F9CF0895F894FFCF29
:02026E0001008D
:00000001FF
